{
  "contractName": "MuseumExhibits",
  "abi": [
    {
      "inputs": [],
      "stateMutability": "nonpayable",
      "type": "constructor"
    },
    {
      "anonymous": false,
      "inputs": [
        {
          "indexed": true,
          "internalType": "address",
          "name": "owner",
          "type": "address"
        },
        {
          "indexed": true,
          "internalType": "address",
          "name": "approved",
          "type": "address"
        },
        {
          "indexed": true,
          "internalType": "uint256",
          "name": "tokenId",
          "type": "uint256"
        }
      ],
      "name": "Approval",
      "type": "event"
    },
    {
      "anonymous": false,
      "inputs": [
        {
          "indexed": true,
          "internalType": "address",
          "name": "owner",
          "type": "address"
        },
        {
          "indexed": true,
          "internalType": "address",
          "name": "operator",
          "type": "address"
        },
        {
          "indexed": false,
          "internalType": "bool",
          "name": "approved",
          "type": "bool"
        }
      ],
      "name": "ApprovalForAll",
      "type": "event"
    },
    {
      "anonymous": false,
      "inputs": [
        {
          "indexed": true,
          "internalType": "address",
          "name": "from",
          "type": "address"
        },
        {
          "indexed": true,
          "internalType": "address",
          "name": "to",
          "type": "address"
        },
        {
          "indexed": true,
          "internalType": "uint256",
          "name": "tokenId",
          "type": "uint256"
        }
      ],
      "name": "Transfer",
      "type": "event"
    },
    {
      "anonymous": false,
      "inputs": [],
      "name": "exhibitKeptOnSale",
      "type": "event"
    },
    {
      "anonymous": false,
      "inputs": [
        {
          "indexed": false,
          "internalType": "uint256",
          "name": "tokenId",
          "type": "uint256"
        }
      ],
      "name": "exhibitMinted",
      "type": "event"
    },
    {
      "anonymous": false,
      "inputs": [
        {
          "indexed": false,
          "internalType": "uint256",
          "name": "tokenId",
          "type": "uint256"
        }
      ],
      "name": "exhibitSold",
      "type": "event"
    },
    {
      "inputs": [
        {
          "internalType": "address",
          "name": "to",
          "type": "address"
        },
        {
          "internalType": "uint256",
          "name": "tokenId",
          "type": "uint256"
        }
      ],
      "name": "approve",
      "outputs": [],
      "stateMutability": "nonpayable",
      "type": "function"
    },
    {
      "inputs": [
        {
          "internalType": "address",
          "name": "owner",
          "type": "address"
        }
      ],
      "name": "balanceOf",
      "outputs": [
        {
          "internalType": "uint256",
          "name": "",
          "type": "uint256"
        }
      ],
      "stateMutability": "view",
      "type": "function",
      "constant": true
    },
    {
      "inputs": [
        {
          "internalType": "uint256",
          "name": "",
          "type": "uint256"
        }
      ],
      "name": "exhibitDetails",
      "outputs": [
        {
          "internalType": "uint256",
          "name": "yearOfCreation",
          "type": "uint256"
        },
        {
          "internalType": "string",
          "name": "owner",
          "type": "string"
        },
        {
          "internalType": "string",
          "name": "nameOfExhibit",
          "type": "string"
        },
        {
          "internalType": "string",
          "name": "history",
          "type": "string"
        }
      ],
      "stateMutability": "view",
      "type": "function",
      "constant": true
    },
    {
      "inputs": [
        {
          "internalType": "uint256",
          "name": "tokenId",
          "type": "uint256"
        }
      ],
      "name": "getApproved",
      "outputs": [
        {
          "internalType": "address",
          "name": "",
          "type": "address"
        }
      ],
      "stateMutability": "view",
      "type": "function",
      "constant": true
    },
    {
      "inputs": [
        {
          "internalType": "address",
          "name": "owner",
          "type": "address"
        },
        {
          "internalType": "address",
          "name": "operator",
          "type": "address"
        }
      ],
      "name": "isApprovedForAll",
      "outputs": [
        {
          "internalType": "bool",
          "name": "",
          "type": "bool"
        }
      ],
      "stateMutability": "view",
      "type": "function",
      "constant": true
    },
    {
      "inputs": [],
      "name": "name",
      "outputs": [
        {
          "internalType": "string",
          "name": "",
          "type": "string"
        }
      ],
      "stateMutability": "view",
      "type": "function",
      "constant": true
    },
    {
      "inputs": [
        {
          "internalType": "uint256",
          "name": "tokenId",
          "type": "uint256"
        }
      ],
      "name": "ownerOf",
      "outputs": [
        {
          "internalType": "address",
          "name": "",
          "type": "address"
        }
      ],
      "stateMutability": "view",
      "type": "function",
      "constant": true
    },
    {
      "inputs": [
        {
          "internalType": "uint256",
          "name": "",
          "type": "uint256"
        }
      ],
      "name": "ratings",
      "outputs": [
        {
          "internalType": "uint256",
          "name": "ratingSum",
          "type": "uint256"
        },
        {
          "internalType": "uint256",
          "name": "noOfRatings",
          "type": "uint256"
        },
        {
          "internalType": "uint256",
          "name": "totalRating",
          "type": "uint256"
        }
      ],
      "stateMutability": "view",
      "type": "function",
      "constant": true
    },
    {
      "inputs": [
        {
          "internalType": "uint256",
          "name": "",
          "type": "uint256"
        }
      ],
      "name": "requests",
      "outputs": [
        {
          "internalType": "uint256",
          "name": "yearOfCreations",
          "type": "uint256"
        },
        {
          "internalType": "string",
          "name": "owners",
          "type": "string"
        },
        {
          "internalType": "string",
          "name": "nameOfExhibits",
          "type": "string"
        },
        {
          "internalType": "string",
          "name": "historys",
          "type": "string"
        },
        {
          "internalType": "bool",
          "name": "authenticOrNot",
          "type": "bool"
        },
        {
          "internalType": "address",
          "name": "ownerAddress",
          "type": "address"
        }
      ],
      "stateMutability": "view",
      "type": "function",
      "constant": true
    },
    {
      "inputs": [
        {
          "internalType": "address",
          "name": "from",
          "type": "address"
        },
        {
          "internalType": "address",
          "name": "to",
          "type": "address"
        },
        {
          "internalType": "uint256",
          "name": "tokenId",
          "type": "uint256"
        }
      ],
      "name": "safeTransferFrom",
      "outputs": [],
      "stateMutability": "nonpayable",
      "type": "function"
    },
    {
      "inputs": [
        {
          "internalType": "address",
          "name": "from",
          "type": "address"
        },
        {
          "internalType": "address",
          "name": "to",
          "type": "address"
        },
        {
          "internalType": "uint256",
          "name": "tokenId",
          "type": "uint256"
        },
        {
          "internalType": "bytes",
          "name": "data",
          "type": "bytes"
        }
      ],
      "name": "safeTransferFrom",
      "outputs": [],
      "stateMutability": "nonpayable",
      "type": "function"
    },
    {
      "inputs": [
        {
          "internalType": "uint256",
          "name": "",
          "type": "uint256"
        }
      ],
      "name": "saleDetails",
      "outputs": [
        {
          "internalType": "uint256",
          "name": "price",
          "type": "uint256"
        },
        {
          "internalType": "uint256",
          "name": "onSaleOrNot",
          "type": "uint256"
        }
      ],
      "stateMutability": "view",
      "type": "function",
      "constant": true
    },
    {
      "inputs": [
        {
          "internalType": "address",
          "name": "operator",
          "type": "address"
        },
        {
          "internalType": "bool",
          "name": "approved",
          "type": "bool"
        }
      ],
      "name": "setApprovalForAll",
      "outputs": [],
      "stateMutability": "nonpayable",
      "type": "function"
    },
    {
      "inputs": [
        {
          "internalType": "bytes4",
          "name": "interfaceId",
          "type": "bytes4"
        }
      ],
      "name": "supportsInterface",
      "outputs": [
        {
          "internalType": "bool",
          "name": "",
          "type": "bool"
        }
      ],
      "stateMutability": "view",
      "type": "function",
      "constant": true
    },
    {
      "inputs": [],
      "name": "symbol",
      "outputs": [
        {
          "internalType": "string",
          "name": "",
          "type": "string"
        }
      ],
      "stateMutability": "view",
      "type": "function",
      "constant": true
    },
    {
      "inputs": [
        {
          "internalType": "uint256",
          "name": "tokenId",
          "type": "uint256"
        }
      ],
      "name": "tokenURI",
      "outputs": [
        {
          "internalType": "string",
          "name": "",
          "type": "string"
        }
      ],
      "stateMutability": "view",
      "type": "function",
      "constant": true
    },
    {
      "inputs": [
        {
          "internalType": "address",
          "name": "from",
          "type": "address"
        },
        {
          "internalType": "address",
          "name": "to",
          "type": "address"
        },
        {
          "internalType": "uint256",
          "name": "tokenId",
          "type": "uint256"
        }
      ],
      "name": "transferFrom",
      "outputs": [],
      "stateMutability": "nonpayable",
      "type": "function"
    },
    {
      "inputs": [
        {
          "internalType": "uint256",
          "name": "reqID",
          "type": "uint256"
        }
      ],
      "name": "mintMuseumExhibit",
      "outputs": [],
      "stateMutability": "nonpayable",
      "type": "function"
    },
    {
      "inputs": [
        {
          "internalType": "uint256",
          "name": "yearOfCreation",
          "type": "uint256"
        },
        {
          "internalType": "string",
          "name": "owner",
          "type": "string"
        },
        {
          "internalType": "string",
          "name": "nameOfExhibit",
          "type": "string"
        },
        {
          "internalType": "string",
          "name": "history",
          "type": "string"
        }
      ],
      "name": "requestMintingAnExhibit",
      "outputs": [],
      "stateMutability": "nonpayable",
      "type": "function"
    },
    {
      "inputs": [
        {
          "internalType": "uint256",
          "name": "tokenId",
          "type": "uint256"
        }
      ],
      "name": "getExhibitDetails",
      "outputs": [
        {
          "components": [
            {
              "internalType": "uint256",
              "name": "yearOfCreation",
              "type": "uint256"
            },
            {
              "internalType": "string",
              "name": "owner",
              "type": "string"
            },
            {
              "internalType": "string",
              "name": "nameOfExhibit",
              "type": "string"
            },
            {
              "internalType": "string",
              "name": "history",
              "type": "string"
            }
          ],
          "internalType": "struct MuseumExhibits.MuseumExhibit",
          "name": "",
          "type": "tuple"
        }
      ],
      "stateMutability": "view",
      "type": "function",
      "constant": true
    },
    {
      "inputs": [
        {
          "internalType": "uint256",
          "name": "tokenId",
          "type": "uint256"
        }
      ],
      "name": "getRatingsOfExhibit",
      "outputs": [
        {
          "internalType": "uint256",
          "name": "",
          "type": "uint256"
        }
      ],
      "stateMutability": "view",
      "type": "function",
      "constant": true
    },
    {
      "inputs": [
        {
          "internalType": "uint256",
          "name": "tokenId",
          "type": "uint256"
        },
        {
          "internalType": "uint256",
          "name": "price",
          "type": "uint256"
        }
      ],
      "name": "keepExhibitOnSale",
      "outputs": [],
      "stateMutability": "nonpayable",
      "type": "function"
    },
    {
      "inputs": [],
      "name": "viewAllExhibits",
      "outputs": [
        {
          "components": [
            {
              "internalType": "uint256",
              "name": "yearOfCreation",
              "type": "uint256"
            },
            {
              "internalType": "string",
              "name": "owner",
              "type": "string"
            },
            {
              "internalType": "string",
              "name": "nameOfExhibit",
              "type": "string"
            },
            {
              "internalType": "string",
              "name": "history",
              "type": "string"
            }
          ],
          "internalType": "struct MuseumExhibits.MuseumExhibit[]",
          "name": "",
          "type": "tuple[]"
        }
      ],
      "stateMutability": "view",
      "type": "function",
      "constant": true
    },
    {
      "inputs": [],
      "name": "viewAllExhibitsOnSale",
      "outputs": [
        {
          "components": [
            {
              "internalType": "uint256",
              "name": "yearOfCreation",
              "type": "uint256"
            },
            {
              "internalType": "string",
              "name": "owner",
              "type": "string"
            },
            {
              "internalType": "string",
              "name": "nameOfExhibit",
              "type": "string"
            },
            {
              "internalType": "string",
              "name": "history",
              "type": "string"
            }
          ],
          "internalType": "struct MuseumExhibits.MuseumExhibit[]",
          "name": "",
          "type": "tuple[]"
        }
      ],
      "stateMutability": "view",
      "type": "function",
      "constant": true
    },
    {
      "inputs": [
        {
          "internalType": "uint256",
          "name": "tokenId",
          "type": "uint256"
        }
      ],
      "name": "removeExhibitFromSale",
      "outputs": [],
      "stateMutability": "nonpayable",
      "type": "function"
    },
    {
      "inputs": [
        {
          "internalType": "uint256",
          "name": "tokenId",
          "type": "uint256"
        }
      ],
      "name": "buyAnExhibit",
      "outputs": [],
      "stateMutability": "payable",
      "type": "function",
      "payable": true
    },
    {
      "inputs": [
        {
          "internalType": "uint256",
          "name": "yearOfCreation",
          "type": "uint256"
        },
        {
          "internalType": "string",
          "name": "owner",
          "type": "string"
        },
        {
          "internalType": "string",
          "name": "nameOfExhibit",
          "type": "string"
        },
        {
          "internalType": "string",
          "name": "history",
          "type": "string"
        }
      ],
      "name": "getTokenId",
      "outputs": [
        {
          "internalType": "uint256",
          "name": "",
          "type": "uint256"
        }
      ],
      "stateMutability": "view",
      "type": "function",
      "constant": true
    },
    {
      "inputs": [
        {
          "internalType": "uint256",
          "name": "yearOfCreations",
          "type": "uint256"
        },
        {
          "internalType": "string",
          "name": "owners",
          "type": "string"
        },
        {
          "internalType": "string",
          "name": "nameOfExhibits",
          "type": "string"
        },
        {
          "internalType": "string",
          "name": "historys",
          "type": "string"
        }
      ],
      "name": "getRequestId",
      "outputs": [
        {
          "internalType": "uint256",
          "name": "",
          "type": "uint256"
        }
      ],
      "stateMutability": "view",
      "type": "function",
      "constant": true
    },
    {
      "inputs": [],
      "name": "getUnMintedExhibitDetails",
      "outputs": [
        {
          "components": [
            {
              "internalType": "uint256",
              "name": "yearOfCreations",
              "type": "uint256"
            },
            {
              "internalType": "string",
              "name": "owners",
              "type": "string"
            },
            {
              "internalType": "string",
              "name": "nameOfExhibits",
              "type": "string"
            },
            {
              "internalType": "string",
              "name": "historys",
              "type": "string"
            },
            {
              "internalType": "bool",
              "name": "authenticOrNot",
              "type": "bool"
            },
            {
              "internalType": "address",
              "name": "ownerAddress",
              "type": "address"
            }
          ],
          "internalType": "struct MuseumExhibits.MuseumExhibitss[]",
          "name": "",
          "type": "tuple[]"
        }
      ],
      "stateMutability": "view",
      "type": "function",
      "constant": true
    },
    {
      "inputs": [
        {
          "internalType": "uint256",
          "name": "tokenId",
          "type": "uint256"
        }
      ],
      "name": "getExhibitPrice",
      "outputs": [
        {
          "internalType": "uint256",
          "name": "",
          "type": "uint256"
        }
      ],
      "stateMutability": "view",
      "type": "function",
      "constant": true
    },
    {
      "inputs": [
        {
          "internalType": "uint256",
          "name": "tokenId",
          "type": "uint256"
        },
        {
          "internalType": "uint256",
          "name": "rating",
          "type": "uint256"
        }
      ],
      "name": "rateAnExhibit",
      "outputs": [],
      "stateMutability": "nonpayable",
      "type": "function"
    },
    {
      "inputs": [
        {
          "internalType": "uint256",
          "name": "tokenId",
          "type": "uint256"
        },
        {
          "internalType": "uint256",
          "name": "percentage",
          "type": "uint256"
        }
      ],
      "name": "appreciateTokenPrice",
      "outputs": [],
      "stateMutability": "nonpayable",
      "type": "function"
    },
    {
      "inputs": [
        {
          "internalType": "uint256",
          "name": "tokenId",
          "type": "uint256"
        },
        {
          "internalType": "uint256",
          "name": "percentage",
          "type": "uint256"
        }
      ],
      "name": "depriciateTokenPrice",
      "outputs": [],
      "stateMutability": "nonpayable",
      "type": "function"
    },
    {
      "inputs": [
        {
          "internalType": "uint256",
          "name": "tokenId",
          "type": "uint256"
        },
        {
          "internalType": "uint256",
          "name": "newPrice",
          "type": "uint256"
        }
      ],
      "name": "updateSalePrice",
      "outputs": [],
      "stateMutability": "nonpayable",
      "type": "function"
    },
    {
      "inputs": [
        {
          "internalType": "uint256",
          "name": "tokenId",
          "type": "uint256"
        }
      ],
      "name": "listAllOwners",
      "outputs": [
        {
          "internalType": "address[]",
          "name": "",
          "type": "address[]"
        }
      ],
      "stateMutability": "view",
      "type": "function",
      "constant": true
    }
  ],
  "bytecode": "0x60806040523480156200001157600080fd5b506040518060400160405280601081526020017f4d757365756d457868696269744e4654000000000000000000000000000000008152506040518060400160405280600281526020017f4d4500000000000000000000000000000000000000000000000000000000000081525081600090816200008f919062000365565b508060019081620000a1919062000365565b50505033600760006101000a81548173ffffffffffffffffffffffffffffffffffffffff021916908373ffffffffffffffffffffffffffffffffffffffff1602179055506200044c565b600081519050919050565b7f4e487b7100000000000000000000000000000000000000000000000000000000600052604160045260246000fd5b7f4e487b7100000000000000000000000000000000000000000000000000000000600052602260045260246000fd5b600060028204905060018216806200016d57607f821691505b60208210810362000183576200018262000125565b5b50919050565b60008190508160005260206000209050919050565b60006020601f8301049050919050565b600082821b905092915050565b600060088302620001ed7fffffffffffffffffffffffffffffffffffffffffffffffffffffffffffffffff82620001ae565b620001f98683620001ae565b95508019841693508086168417925050509392505050565b6000819050919050565b6000819050919050565b600062000246620002406200023a8462000211565b6200021b565b62000211565b9050919050565b6000819050919050565b620002628362000225565b6200027a62000271826200024d565b848454620001bb565b825550505050565b600090565b6200029162000282565b6200029e81848462000257565b505050565b5b81811015620002c657620002ba60008262000287565b600181019050620002a4565b5050565b601f8211156200031557620002df8162000189565b620002ea846200019e565b81016020851015620002fa578190505b6200031262000309856200019e565b830182620002a3565b50505b505050565b600082821c905092915050565b60006200033a600019846008026200031a565b1980831691505092915050565b600062000355838362000327565b9150826002028217905092915050565b6200037082620000eb565b67ffffffffffffffff8111156200038c576200038b620000f6565b5b62000398825462000154565b620003a5828285620002ca565b600060209050601f831160018114620003dd5760008415620003c8578287015190505b620003d4858262000347565b86555062000444565b601f198416620003ed8662000189565b60005b828110156200041757848901518255600182019150602085019450602081019050620003f0565b8683101562000437578489015162000433601f89168262000327565b8355505b6001600288020188555050505b505050505050565b615e11806200045c6000396000f3fe6080604052600436106102045760003560e01c80636352211e11610118578063b7365d2a116100a0578063c87b56dd1161006f578063c87b56dd146107df578063cf351f3e1461081c578063d7dd80fa14610847578063dcc1bae214610872578063e985e9c5146108af57610204565b8063b7365d2a14610710578063b80a61fb14610750578063b88d4fde14610779578063c33757d6146107a257610204565b806378c72256116100e757806378c722561461061357806381d12c581461063c57806395d89b411461067e578063989d6ed1146106a9578063a22cb465146106e757610204565b80636352211e146105335780636c6f3ac21461057057806370a082311461059957806371bd9463146105d657610204565b8063390102651161019b5780634896672e1161016a5780634896672e1461043c5780635bb0d95a146104655780635d30e84d1461048e5780635ec823e7146104cd578063627afcf41461050a57610204565b806339010265146103a357806342842e0e146103ce57806344ee7614146103f757806346ecfbdd1461042057610204565b80630c385968116101d75780630c385968146102d75780631e2b76171461031457806323b872dd1461033d57806334f423fe1461036657610204565b806301ffc9a71461020957806306fdde0314610246578063081812fc14610271578063095ea7b3146102ae575b600080fd5b34801561021557600080fd5b50610230600480360381019061022b91906141a6565b6108ec565b60405161023d91906141ee565b60405180910390f35b34801561025257600080fd5b5061025b6109ce565b6040516102689190614299565b60405180910390f35b34801561027d57600080fd5b50610298600480360381019061029391906142f1565b610a60565b6040516102a5919061435f565b60405180910390f35b3480156102ba57600080fd5b506102d560048036038101906102d091906143a6565b610aa6565b005b3480156102e357600080fd5b506102fe60048036038101906102f991906142f1565b610bbd565b60405161030b91906144a4565b60405180910390f35b34801561032057600080fd5b5061033b600480360381019061033691906144c6565b610caf565b005b34801561034957600080fd5b50610364600480360381019061035f9190614506565b610daf565b005b34801561037257600080fd5b5061038d600480360381019061038891906142f1565b610e0f565b60405161039a9190614623565b60405180910390f35b3480156103af57600080fd5b506103b861104d565b6040516103c59190614778565b60405180910390f35b3480156103da57600080fd5b506103f560048036038101906103f09190614506565b61135c565b005b34801561040357600080fd5b5061041e600480360381019061041991906148cf565b61137c565b005b61043a600480360381019061043591906142f1565b6114a8565b005b34801561044857600080fd5b50610463600480360381019061045e91906144c6565b61176b565b005b34801561047157600080fd5b5061048c600480360381019061048791906144c6565b61182f565b005b34801561049a57600080fd5b506104b560048036038101906104b091906142f1565b611979565b6040516104c493929190614999565b60405180910390f35b3480156104d957600080fd5b506104f460048036038101906104ef91906142f1565b6119a3565b60405161050191906149d0565b60405180910390f35b34801561051657600080fd5b50610531600480360381019061052c91906144c6565b611a14565b005b34801561053f57600080fd5b5061055a600480360381019061055591906142f1565b611b5e565b604051610567919061435f565b60405180910390f35b34801561057c57600080fd5b50610597600480360381019061059291906142f1565b611be4565b005b3480156105a557600080fd5b506105c060048036038101906105bb91906149eb565b611d03565b6040516105cd91906149d0565b60405180910390f35b3480156105e257600080fd5b506105fd60048036038101906105f891906148cf565b611dba565b60405161060a91906149d0565b60405180910390f35b34801561061f57600080fd5b5061063a600480360381019061063591906142f1565b611f96565b005b34801561064857600080fd5b50610663600480360381019061065e91906142f1565b61242f565b60405161067596959493929190614a18565b60405180910390f35b34801561068a57600080fd5b50610693612640565b6040516106a09190614299565b60405180910390f35b3480156106b557600080fd5b506106d060048036038101906106cb91906142f1565b6126d2565b6040516106de929190614a8e565b60405180910390f35b3480156106f357600080fd5b5061070e60048036038101906107099190614ae3565b6126f6565b005b34801561071c57600080fd5b50610737600480360381019061073291906142f1565b61270c565b6040516107479493929190614b23565b60405180910390f35b34801561075c57600080fd5b50610777600480360381019061077291906144c6565b6128d4565b005b34801561078557600080fd5b506107a0600480360381019061079b9190614c1e565b6129e9565b005b3480156107ae57600080fd5b506107c960048036038101906107c491906148cf565b612a4b565b6040516107d691906149d0565b60405180910390f35b3480156107eb57600080fd5b50610806600480360381019061080191906142f1565b612bef565b6040516108139190614299565b60405180910390f35b34801561082857600080fd5b50610831612c57565b60405161083e9190614e09565b60405180910390f35b34801561085357600080fd5b5061085c612faf565b6040516108699190614778565b60405180910390f35b34801561087e57600080fd5b50610899600480360381019061089491906142f1565b613246565b6040516108a691906149d0565b60405180910390f35b3480156108bb57600080fd5b506108d660048036038101906108d19190614e2b565b6132b7565b6040516108e391906141ee565b60405180910390f35b60007f80ac58cd000000000000000000000000000000000000000000000000000000007bffffffffffffffffffffffffffffffffffffffffffffffffffffffff1916827bffffffffffffffffffffffffffffffffffffffffffffffffffffffff191614806109b757507f5b5e139f000000000000000000000000000000000000000000000000000000007bffffffffffffffffffffffffffffffffffffffffffffffffffffffff1916827bffffffffffffffffffffffffffffffffffffffffffffffffffffffff1916145b806109c757506109c68261334b565b5b9050919050565b6060600080546109dd90614e9a565b80601f0160208091040260200160405190810160405280929190818152602001828054610a0990614e9a565b8015610a565780601f10610a2b57610100808354040283529160200191610a56565b820191906000526020600020905b815481529060010190602001808311610a3957829003601f168201915b5050505050905090565b6000610a6b826133b5565b6004600083815260200190815260200160002060009054906101000a900473ffffffffffffffffffffffffffffffffffffffff169050919050565b6000610ab182611b5e565b90508073ffffffffffffffffffffffffffffffffffffffff168373ffffffffffffffffffffffffffffffffffffffff1603610b21576040517f08c379a0000000000000000000000000000000000000000000000000000000008152600401610b1890614f3d565b60405180910390fd5b8073ffffffffffffffffffffffffffffffffffffffff16610b40613400565b73ffffffffffffffffffffffffffffffffffffffff161480610b6f5750610b6e81610b69613400565b6132b7565b5b610bae576040517f08c379a0000000000000000000000000000000000000000000000000000000008152600401610ba590614fcf565b60405180910390fd5b610bb88383613408565b505050565b60608160011515610bcd826134c1565b151514610c0f576040517f08c379a0000000000000000000000000000000000000000000000000000000008152600401610c069061503b565b60405180910390fd5b600c6000848152602001908152602001600020805480602002602001604051908101604052809291908181526020018280548015610ca257602002820191906000526020600020905b8160009054906101000a900473ffffffffffffffffffffffffffffffffffffffff1673ffffffffffffffffffffffffffffffffffffffff1681526020019060010190808311610c58575b5050505050915050919050565b8160011515610cbd826134c1565b151514610cff576040517f08c379a0000000000000000000000000000000000000000000000000000000008152600401610cf69061503b565b60405180910390fd5b81600b60008581526020019081526020016000206000016000828254610d25919061508a565b92505081905550600b60008481526020019081526020016000206001016000815480929190610d53906150be565b9190505550600b600084815260200190815260200160002060010154600b600085815260200190815260200160002060000154610d909190615135565b600b600085815260200190815260200160002060020181905550505050565b610dc0610dba613400565b82613502565b610dff576040517f08c379a0000000000000000000000000000000000000000000000000000000008152600401610df6906151d8565b60405180910390fd5b610e0a838383613597565b505050565b610e176140c4565b8160011515610e25826134c1565b151514610e67576040517f08c379a0000000000000000000000000000000000000000000000000000000008152600401610e5e9061503b565b60405180910390fd5b6009600084815260200190815260200160002060405180608001604052908160008201548152602001600182018054610e9f90614e9a565b80601f0160208091040260200160405190810160405280929190818152602001828054610ecb90614e9a565b8015610f185780601f10610eed57610100808354040283529160200191610f18565b820191906000526020600020905b815481529060010190602001808311610efb57829003601f168201915b50505050508152602001600282018054610f3190614e9a565b80601f0160208091040260200160405190810160405280929190818152602001828054610f5d90614e9a565b8015610faa5780601f10610f7f57610100808354040283529160200191610faa565b820191906000526020600020905b815481529060010190602001808311610f8d57829003601f168201915b50505050508152602001600382018054610fc390614e9a565b80601f0160208091040260200160405190810160405280929190818152602001828054610fef90614e9a565b801561103c5780601f106110115761010080835404028352916020019161103c565b820191906000526020600020905b81548152906001019060200180831161101f57829003601f168201915b505050505081525050915050919050565b6060600061105b6006613890565b90506000806000600190505b8381116110ae576001600a6000838152602001908152602001600020600101540361109b578280611097906150be565b9350505b80806110a6906150be565b915050611067565b5060008267ffffffffffffffff8111156110cb576110ca6147a4565b5b60405190808252806020026020018201604052801561110457816020015b6110f16140c4565b8152602001906001900390816110e95790505b5090506000600190505b848111611351576001600a6000838152602001908152602001600020600101540361133e57600960008281526020019081526020016000206040518060800160405290816000820154815260200160018201805461116b90614e9a565b80601f016020809104026020016040519081016040528092919081815260200182805461119790614e9a565b80156111e45780601f106111b9576101008083540402835291602001916111e4565b820191906000526020600020905b8154815290600101906020018083116111c757829003601f168201915b505050505081526020016002820180546111fd90614e9a565b80601f016020809104026020016040519081016040528092919081815260200182805461122990614e9a565b80156112765780601f1061124b57610100808354040283529160200191611276565b820191906000526020600020905b81548152906001019060200180831161125957829003601f168201915b5050505050815260200160038201805461128f90614e9a565b80601f01602080910402602001604051908101604052809291908181526020018280546112bb90614e9a565b80156113085780601f106112dd57610100808354040283529160200191611308565b820191906000526020600020905b8154815290600101906020018083116112eb57829003601f168201915b505050505081525050828481518110611324576113236151f8565b5b6020026020010181905250828061133a906150be565b9350505b8080611349906150be565b91505061110e565b508094505050505090565b611377838383604051806020016040528060008152506129e9565b505050565b60086040518060c001604052808681526020018581526020018481526020018381526020016000151581526020013373ffffffffffffffffffffffffffffffffffffffff16815250908060018154018082558091505060019003906000526020600020906005020160009091909190915060008201518160000155602082015181600101908161140c91906153d3565b50604082015181600201908161142291906153d3565b50606082015181600301908161143891906153d3565b5060808201518160040160006101000a81548160ff02191690831515021790555060a08201518160040160016101000a81548173ffffffffffffffffffffffffffffffffffffffff021916908373ffffffffffffffffffffffffffffffffffffffff160217905550505050505050565b80600115156114b6826134c1565b1515146114f8576040517f08c379a00000000000000000000000000000000000000000000000000000000081526004016114ef9061503b565b60405180910390fd5b816001600a60008381526020019081526020016000206001015414611552576040517f08c379a0000000000000000000000000000000000000000000000000000000008152600401611549906154f1565b60405180910390fd5b3483600a6000828152602001908152602001600020600001548210156115ad576040517f08c379a00000000000000000000000000000000000000000000000000000000081526004016115a49061555d565b60405180910390fd5b6000600a6000878152602001908152602001600020905060006115cf87611b5e565b905060003390508073ffffffffffffffffffffffffffffffffffffffff168273ffffffffffffffffffffffffffffffffffffffff1603611644576040517f08c379a000000000000000000000000000000000000000000000000000000000815260040161163b906155c9565b60405180910390fd5b8173ffffffffffffffffffffffffffffffffffffffff166108fc84600001549081150290604051600060405180830381858888f1935050505015801561168e573d6000803e3d6000fd5b5061169a82828a613597565b600c6000898152602001908152602001600020339080600181540180825580915050600190039060005260206000200160009091909190916101000a81548173ffffffffffffffffffffffffffffffffffffffff021916908373ffffffffffffffffffffffffffffffffffffffff1602179055506000600a60008a8152602001908152602001600020600101819055507f4f6d7dc9cba5000d25155e1f8607bc5d2e46092ea4846cbee80cc902d82e5aff8860405161175991906149d0565b60405180910390a15050505050505050565b8160011515611779826134c1565b1515146117bb576040517f08c379a00000000000000000000000000000000000000000000000000000000081526004016117b29061503b565b60405180910390fd5b3383600115156117cb8383613502565b15151461180d576040517f08c379a00000000000000000000000000000000000000000000000000000000081526004016118049061565b565b60405180910390fd5b83600a6000878152602001908152602001600020600001819055505050505050565b816001151561183d826134c1565b15151461187f576040517f08c379a00000000000000000000000000000000000000000000000000000000081526004016118769061503b565b60405180910390fd5b33836001151561188f8383613502565b1515146118d1576040517f08c379a00000000000000000000000000000000000000000000000000000000081526004016118c89061565b565b60405180910390fd5b6000841180156118e2575060648411155b611921576040517f08c379a0000000000000000000000000000000000000000000000000000000008152600401611918906156ed565b60405180910390fd5b600061192c86613246565b905060006064868361193e919061570d565b6119489190615135565b90508082611956919061508a565b600a60008981526020019081526020016000206000018190555050505050505050565b600b6020528060005260406000206000915090508060000154908060010154908060020154905083565b600081600115156119b3826134c1565b1515146119f5576040517f08c379a00000000000000000000000000000000000000000000000000000000081526004016119ec9061503b565b60405180910390fd5b600b600084815260200190815260200160002060020154915050919050565b8160011515611a22826134c1565b151514611a64576040517f08c379a0000000000000000000000000000000000000000000000000000000008152600401611a5b9061503b565b60405180910390fd5b338360011515611a748383613502565b151514611ab6576040517f08c379a0000000000000000000000000000000000000000000000000000000008152600401611aad9061565b565b60405180910390fd5b600084118015611ac7575060648411155b611b06576040517f08c379a0000000000000000000000000000000000000000000000000000000008152600401611afd906156ed565b60405180910390fd5b6000611b1186613246565b9050600060648683611b23919061570d565b611b2d9190615135565b90508082611b3b919061574f565b600a60008981526020019081526020016000206000018190555050505050505050565b600080611b6a8361389e565b9050600073ffffffffffffffffffffffffffffffffffffffff168173ffffffffffffffffffffffffffffffffffffffff1603611bdb576040517f08c379a0000000000000000000000000000000000000000000000000000000008152600401611bd2906157cf565b60405180910390fd5b80915050919050565b8060011515611bf2826134c1565b151514611c34576040517f08c379a0000000000000000000000000000000000000000000000000000000008152600401611c2b9061503b565b60405180910390fd5b338260011515611c448383613502565b151514611c86576040517f08c379a0000000000000000000000000000000000000000000000000000000008152600401611c7d9061565b565b60405180910390fd5b836001600a60008381526020019081526020016000206001015414611ce0576040517f08c379a0000000000000000000000000000000000000000000000000000000008152600401611cd7906154f1565b60405180910390fd5b6000600a6000878152602001908152602001600020600101819055505050505050565b60008073ffffffffffffffffffffffffffffffffffffffff168273ffffffffffffffffffffffffffffffffffffffff1603611d73576040517f08c379a0000000000000000000000000000000000000000000000000000000008152600401611d6a90615861565b60405180910390fd5b600360008373ffffffffffffffffffffffffffffffffffffffff1673ffffffffffffffffffffffffffffffffffffffff168152602001908152602001600020549050919050565b600080600090505b6008805490508111611f88578560088281548110611de357611de26151f8565b5b906000526020600020906005020160000154148015611e71575084604051602001611e0e91906158bd565b6040516020818303038152906040528051906020012060088281548110611e3857611e376151f8565b5b9060005260206000209060050201600101604051602001611e599190615957565b60405160208183030381529060405280519060200120145b8015611eec575083604051602001611e8991906158bd565b6040516020818303038152906040528051906020012060088281548110611eb357611eb26151f8565b5b9060005260206000209060050201600201604051602001611ed49190615957565b60405160208183030381529060405280519060200120145b8015611f67575082604051602001611f0491906158bd565b6040516020818303038152906040528051906020012060088281548110611f2e57611f2d6151f8565b5b9060005260206000209060050201600301604051602001611f4f9190615957565b60405160208183030381529060405280519060200120145b15611f755780915050611f8e565b8080611f80906150be565b915050611dc2565b50600090505b949350505050565b600760009054906101000a900473ffffffffffffffffffffffffffffffffffffffff1673ffffffffffffffffffffffffffffffffffffffff163373ffffffffffffffffffffffffffffffffffffffff1614612026576040517f08c379a000000000000000000000000000000000000000000000000000000000815260040161201d906159ba565b60405180910390fd5b61203060066138db565b600061203c6006613890565b905061208d60088381548110612055576120546151f8565b5b906000526020600020906005020160040160019054906101000a900473ffffffffffffffffffffffffffffffffffffffff16826138f1565b6001600883815481106120a3576120a26151f8565b5b906000526020600020906005020160040160006101000a81548160ff02191690831515021790555060006040518060800160405280600885815481106120ec576120eb6151f8565b5b906000526020600020906005020160000154815260200160088581548110612117576121166151f8565b5b9060005260206000209060050201600101805461213390614e9a565b80601f016020809104026020016040519081016040528092919081815260200182805461215f90614e9a565b80156121ac5780601f10612181576101008083540402835291602001916121ac565b820191906000526020600020905b81548152906001019060200180831161218f57829003601f168201915b50505050508152602001600885815481106121ca576121c96151f8565b5b906000526020600020906005020160020180546121e690614e9a565b80601f016020809104026020016040519081016040528092919081815260200182805461221290614e9a565b801561225f5780601f106122345761010080835404028352916020019161225f565b820191906000526020600020905b81548152906001019060200180831161224257829003601f168201915b505050505081526020016008858154811061227d5761227c6151f8565b5b9060005260206000209060050201600301805461229990614e9a565b80601f01602080910402602001604051908101604052809291908181526020018280546122c590614e9a565b80156123125780601f106122e757610100808354040283529160200191612312565b820191906000526020600020905b8154815290600101906020018083116122f557829003601f168201915b50505050508152509050806009600084815260200190815260200160002060008201518160000155602082015181600101908161234f91906153d3565b50604082015181600201908161236591906153d3565b50606082015181600301908161237b91906153d3565b50905050600c6000838152602001908152602001600020339080600181540180825580915050600190039060005260206000200160009091909190916101000a81548173ffffffffffffffffffffffffffffffffffffffff021916908373ffffffffffffffffffffffffffffffffffffffff1602179055507feaa69e02bbcd0aa8185532dddbde4036659414db66b6640f3b2c35fc2f4d705f8260405161242291906149d0565b60405180910390a1505050565b6008818154811061243f57600080fd5b906000526020600020906005020160009150905080600001549080600101805461246890614e9a565b80601f016020809104026020016040519081016040528092919081815260200182805461249490614e9a565b80156124e15780601f106124b6576101008083540402835291602001916124e1565b820191906000526020600020905b8154815290600101906020018083116124c457829003601f168201915b5050505050908060020180546124f690614e9a565b80601f016020809104026020016040519081016040528092919081815260200182805461252290614e9a565b801561256f5780601f106125445761010080835404028352916020019161256f565b820191906000526020600020905b81548152906001019060200180831161255257829003601f168201915b50505050509080600301805461258490614e9a565b80601f01602080910402602001604051908101604052809291908181526020018280546125b090614e9a565b80156125fd5780601f106125d2576101008083540402835291602001916125fd565b820191906000526020600020905b8154815290600101906020018083116125e057829003601f168201915b5050505050908060040160009054906101000a900460ff16908060040160019054906101000a900473ffffffffffffffffffffffffffffffffffffffff16905086565b60606001805461264f90614e9a565b80601f016020809104026020016040519081016040528092919081815260200182805461267b90614e9a565b80156126c85780601f1061269d576101008083540402835291602001916126c8565b820191906000526020600020905b8154815290600101906020018083116126ab57829003601f168201915b5050505050905090565b600a6020528060005260406000206000915090508060000154908060010154905082565b612708612701613400565b8383613b0e565b5050565b600960205280600052604060002060009150905080600001549080600101805461273590614e9a565b80601f016020809104026020016040519081016040528092919081815260200182805461276190614e9a565b80156127ae5780601f10612783576101008083540402835291602001916127ae565b820191906000526020600020905b81548152906001019060200180831161279157829003601f168201915b5050505050908060020180546127c390614e9a565b80601f01602080910402602001604051908101604052809291908181526020018280546127ef90614e9a565b801561283c5780601f106128115761010080835404028352916020019161283c565b820191906000526020600020905b81548152906001019060200180831161281f57829003601f168201915b50505050509080600301805461285190614e9a565b80601f016020809104026020016040519081016040528092919081815260200182805461287d90614e9a565b80156128ca5780601f1061289f576101008083540402835291602001916128ca565b820191906000526020600020905b8154815290600101906020018083116128ad57829003601f168201915b5050505050905084565b81600115156128e2826134c1565b151514612924576040517f08c379a000000000000000000000000000000000000000000000000000000000815260040161291b9061503b565b60405180910390fd5b3383600115156129348383613502565b151514612976576040517f08c379a000000000000000000000000000000000000000000000000000000000815260040161296d9061565b565b60405180910390fd5b60405180604001604052808581526020016001815250600a600087815260200190815260200160002060008201518160000155602082015181600101559050507ffb138857998d2b27abe09356a9241945fcc128ece459873c46f8a94a7f48399260405160405180910390a15050505050565b6129fa6129f4613400565b83613502565b612a39576040517f08c379a0000000000000000000000000000000000000000000000000000000008152600401612a30906151d8565b60405180910390fd5b612a4584848484613c7a565b50505050565b600080600190505b612a5d6006613890565b8111612be157856009600083815260200190815260200160002060000154148015612ae8575084604051602001612a9491906158bd565b6040516020818303038152906040528051906020012060096000838152602001908152602001600020600101604051602001612ad09190615957565b60405160208183030381529060405280519060200120145b8015612b54575083604051602001612b0091906158bd565b6040516020818303038152906040528051906020012060096000838152602001908152602001600020600201604051602001612b3c9190615957565b60405160208183030381529060405280519060200120145b8015612bc0575082604051602001612b6c91906158bd565b6040516020818303038152906040528051906020012060096000838152602001908152602001600020600301604051602001612ba89190615957565b60405160208183030381529060405280519060200120145b15612bce5780915050612be7565b8080612bd9906150be565b915050612a53565b50600090505b949350505050565b6060612bfa826133b5565b6000612c04613cd6565b90506000815111612c245760405180602001604052806000815250612c4f565b80612c2e84613ced565b604051602001612c3f9291906159da565b6040516020818303038152906040525b915050919050565b6060600060088054905067ffffffffffffffff811115612c7a57612c796147a4565b5b604051908082528060200260200182016040528015612cb357816020015b612ca06140ec565b815260200190600190039081612c985790505b5090506000805b600880549050811015612fa3576000151560088281548110612cdf57612cde6151f8565b5b906000526020600020906005020160040160009054906101000a900460ff16151503612f905760088181548110612d1957612d186151f8565b5b90600052602060002090600502016040518060c001604052908160008201548152602001600182018054612d4c90614e9a565b80601f0160208091040260200160405190810160405280929190818152602001828054612d7890614e9a565b8015612dc55780601f10612d9a57610100808354040283529160200191612dc5565b820191906000526020600020905b815481529060010190602001808311612da857829003601f168201915b50505050508152602001600282018054612dde90614e9a565b80601f0160208091040260200160405190810160405280929190818152602001828054612e0a90614e9a565b8015612e575780601f10612e2c57610100808354040283529160200191612e57565b820191906000526020600020905b815481529060010190602001808311612e3a57829003601f168201915b50505050508152602001600382018054612e7090614e9a565b80601f0160208091040260200160405190810160405280929190818152602001828054612e9c90614e9a565b8015612ee95780601f10612ebe57610100808354040283529160200191612ee9565b820191906000526020600020905b815481529060010190602001808311612ecc57829003601f168201915b505050505081526020016004820160009054906101000a900460ff161515151581526020016004820160019054906101000a900473ffffffffffffffffffffffffffffffffffffffff1673ffffffffffffffffffffffffffffffffffffffff1673ffffffffffffffffffffffffffffffffffffffff1681525050838381518110612f7657612f756151f8565b5b60200260200101819052508180612f8c906150be565b9250505b8080612f9b906150be565b915050612cba565b50808252819250505090565b60606000612fbd6006613890565b905060008167ffffffffffffffff811115612fdb57612fda6147a4565b5b60405190808252806020026020018201604052801561301457816020015b6130016140c4565b815260200190600190039081612ff95790505b50905060005b8281101561323d5760096000600183613033919061508a565b81526020019081526020016000206040518060800160405290816000820154815260200160018201805461306690614e9a565b80601f016020809104026020016040519081016040528092919081815260200182805461309290614e9a565b80156130df5780601f106130b4576101008083540402835291602001916130df565b820191906000526020600020905b8154815290600101906020018083116130c257829003601f168201915b505050505081526020016002820180546130f890614e9a565b80601f016020809104026020016040519081016040528092919081815260200182805461312490614e9a565b80156131715780601f1061314657610100808354040283529160200191613171565b820191906000526020600020905b81548152906001019060200180831161315457829003601f168201915b5050505050815260200160038201805461318a90614e9a565b80601f01602080910402602001604051908101604052809291908181526020018280546131b690614e9a565b80156132035780601f106131d857610100808354040283529160200191613203565b820191906000526020600020905b8154815290600101906020018083116131e657829003601f168201915b50505050508152505082828151811061321f5761321e6151f8565b5b60200260200101819052508080613235906150be565b91505061301a565b50809250505090565b60008160011515613256826134c1565b151514613298576040517f08c379a000000000000000000000000000000000000000000000000000000000815260040161328f9061503b565b60405180910390fd5b600a600084815260200190815260200160002060000154915050919050565b6000600560008473ffffffffffffffffffffffffffffffffffffffff1673ffffffffffffffffffffffffffffffffffffffff16815260200190815260200160002060008373ffffffffffffffffffffffffffffffffffffffff1673ffffffffffffffffffffffffffffffffffffffff16815260200190815260200160002060009054906101000a900460ff16905092915050565b60007f01ffc9a7000000000000000000000000000000000000000000000000000000007bffffffffffffffffffffffffffffffffffffffffffffffffffffffff1916827bffffffffffffffffffffffffffffffffffffffffffffffffffffffff1916149050919050565b6133be816134c1565b6133fd576040517f08c379a00000000000000000000000000000000000000000000000000000000081526004016133f4906157cf565b60405180910390fd5b50565b600033905090565b816004600083815260200190815260200160002060006101000a81548173ffffffffffffffffffffffffffffffffffffffff021916908373ffffffffffffffffffffffffffffffffffffffff160217905550808273ffffffffffffffffffffffffffffffffffffffff1661347b83611b5e565b73ffffffffffffffffffffffffffffffffffffffff167f8c5be1e5ebec7d5bd14f71427d1e84f3dd0314c0f7b2291e5b200ac8c7c3b92560405160405180910390a45050565b60008073ffffffffffffffffffffffffffffffffffffffff166134e38361389e565b73ffffffffffffffffffffffffffffffffffffffff1614159050919050565b60008061350e83611b5e565b90508073ffffffffffffffffffffffffffffffffffffffff168473ffffffffffffffffffffffffffffffffffffffff161480613550575061354f81856132b7565b5b8061358e57508373ffffffffffffffffffffffffffffffffffffffff1661357684610a60565b73ffffffffffffffffffffffffffffffffffffffff16145b91505092915050565b8273ffffffffffffffffffffffffffffffffffffffff166135b782611b5e565b73ffffffffffffffffffffffffffffffffffffffff161461360d576040517f08c379a000000000000000000000000000000000000000000000000000000000815260040161360490615a70565b60405180910390fd5b600073ffffffffffffffffffffffffffffffffffffffff168273ffffffffffffffffffffffffffffffffffffffff160361367c576040517f08c379a000000000000000000000000000000000000000000000000000000000815260040161367390615b02565b60405180910390fd5b6136898383836001613dbb565b8273ffffffffffffffffffffffffffffffffffffffff166136a982611b5e565b73ffffffffffffffffffffffffffffffffffffffff16146136ff576040517f08c379a00000000000000000000000000000000000000000000000000000000081526004016136f690615a70565b60405180910390fd5b6004600082815260200190815260200160002060006101000a81549073ffffffffffffffffffffffffffffffffffffffff02191690556001600360008573ffffffffffffffffffffffffffffffffffffffff1673ffffffffffffffffffffffffffffffffffffffff168152602001908152602001600020600082825403925050819055506001600360008473ffffffffffffffffffffffffffffffffffffffff1673ffffffffffffffffffffffffffffffffffffffff16815260200190815260200160002060008282540192505081905550816002600083815260200190815260200160002060006101000a81548173ffffffffffffffffffffffffffffffffffffffff021916908373ffffffffffffffffffffffffffffffffffffffff160217905550808273ffffffffffffffffffffffffffffffffffffffff168473ffffffffffffffffffffffffffffffffffffffff167fddf252ad1be2c89b69c2b068fc378daa952ba7f163c4a11628f55a4df523b3ef60405160405180910390a461388b8383836001613dc1565b505050565b600081600001549050919050565b60006002600083815260200190815260200160002060009054906101000a900473ffffffffffffffffffffffffffffffffffffffff169050919050565b6001816000016000828254019250508190555050565b600073ffffffffffffffffffffffffffffffffffffffff168273ffffffffffffffffffffffffffffffffffffffff1603613960576040517f08c379a000000000000000000000000000000000000000000000000000000000815260040161395790615b6e565b60405180910390fd5b613969816134c1565b156139a9576040517f08c379a00000000000000000000000000000000000000000000000000000000081526004016139a090615bda565b60405180910390fd5b6139b7600083836001613dbb565b6139c0816134c1565b15613a00576040517f08c379a00000000000000000000000000000000000000000000000000000000081526004016139f790615bda565b60405180910390fd5b6001600360008473ffffffffffffffffffffffffffffffffffffffff1673ffffffffffffffffffffffffffffffffffffffff16815260200190815260200160002060008282540192505081905550816002600083815260200190815260200160002060006101000a81548173ffffffffffffffffffffffffffffffffffffffff021916908373ffffffffffffffffffffffffffffffffffffffff160217905550808273ffffffffffffffffffffffffffffffffffffffff16600073ffffffffffffffffffffffffffffffffffffffff167fddf252ad1be2c89b69c2b068fc378daa952ba7f163c4a11628f55a4df523b3ef60405160405180910390a4613b0a600083836001613dc1565b5050565b8173ffffffffffffffffffffffffffffffffffffffff168373ffffffffffffffffffffffffffffffffffffffff1603613b7c576040517f08c379a0000000000000000000000000000000000000000000000000000000008152600401613b7390615c46565b60405180910390fd5b80600560008573ffffffffffffffffffffffffffffffffffffffff1673ffffffffffffffffffffffffffffffffffffffff16815260200190815260200160002060008473ffffffffffffffffffffffffffffffffffffffff1673ffffffffffffffffffffffffffffffffffffffff16815260200190815260200160002060006101000a81548160ff0219169083151502179055508173ffffffffffffffffffffffffffffffffffffffff168373ffffffffffffffffffffffffffffffffffffffff167f17307eab39ab6107e8899845ad3d59bd9653f200f220920489ca2b5937696c3183604051613c6d91906141ee565b60405180910390a3505050565b613c85848484613597565b613c9184848484613dc7565b613cd0576040517f08c379a0000000000000000000000000000000000000000000000000000000008152600401613cc790615cd8565b60405180910390fd5b50505050565b606060405180602001604052806000815250905090565b606060006001613cfc84613f4e565b01905060008167ffffffffffffffff811115613d1b57613d1a6147a4565b5b6040519080825280601f01601f191660200182016040528015613d4d5781602001600182028036833780820191505090505b509050600082602001820190505b600115613db0578080600190039150507f3031323334353637383961626364656600000000000000000000000000000000600a86061a8153600a8581613da457613da3615106565b5b04945060008503613d5b575b819350505050919050565b50505050565b50505050565b6000613de88473ffffffffffffffffffffffffffffffffffffffff166140a1565b15613f41578373ffffffffffffffffffffffffffffffffffffffff1663150b7a02613e11613400565b8786866040518563ffffffff1660e01b8152600401613e339493929190615d4d565b6020604051808303816000875af1925050508015613e6f57506040513d601f19601f82011682018060405250810190613e6c9190615dae565b60015b613ef1573d8060008114613e9f576040519150601f19603f3d011682016040523d82523d6000602084013e613ea4565b606091505b506000815103613ee9576040517f08c379a0000000000000000000000000000000000000000000000000000000008152600401613ee090615cd8565b60405180910390fd5b805181602001fd5b63150b7a0260e01b7bffffffffffffffffffffffffffffffffffffffffffffffffffffffff1916817bffffffffffffffffffffffffffffffffffffffffffffffffffffffff191614915050613f46565b600190505b949350505050565b600080600090507a184f03e93ff9f4daa797ed6e38ed64bf6a1f0100000000000000008310613fac577a184f03e93ff9f4daa797ed6e38ed64bf6a1f0100000000000000008381613fa257613fa1615106565b5b0492506040810190505b6d04ee2d6d415b85acef81000000008310613fe9576d04ee2d6d415b85acef81000000008381613fdf57613fde615106565b5b0492506020810190505b662386f26fc10000831061401857662386f26fc10000838161400e5761400d615106565b5b0492506010810190505b6305f5e1008310614041576305f5e100838161403757614036615106565b5b0492506008810190505b612710831061406657612710838161405c5761405b615106565b5b0492506004810190505b60648310614089576064838161407f5761407e615106565b5b0492506002810190505b600a8310614098576001810190505b80915050919050565b6000808273ffffffffffffffffffffffffffffffffffffffff163b119050919050565b6040518060800160405280600081526020016060815260200160608152602001606081525090565b6040518060c0016040528060008152602001606081526020016060815260200160608152602001600015158152602001600073ffffffffffffffffffffffffffffffffffffffff1681525090565b6000604051905090565b600080fd5b600080fd5b60007fffffffff0000000000000000000000000000000000000000000000000000000082169050919050565b6141838161414e565b811461418e57600080fd5b50565b6000813590506141a08161417a565b92915050565b6000602082840312156141bc576141bb614144565b5b60006141ca84828501614191565b91505092915050565b60008115159050919050565b6141e8816141d3565b82525050565b600060208201905061420360008301846141df565b92915050565b600081519050919050565b600082825260208201905092915050565b60005b83811015614243578082015181840152602081019050614228565b60008484015250505050565b6000601f19601f8301169050919050565b600061426b82614209565b6142758185614214565b9350614285818560208601614225565b61428e8161424f565b840191505092915050565b600060208201905081810360008301526142b38184614260565b905092915050565b6000819050919050565b6142ce816142bb565b81146142d957600080fd5b50565b6000813590506142eb816142c5565b92915050565b60006020828403121561430757614306614144565b5b6000614315848285016142dc565b91505092915050565b600073ffffffffffffffffffffffffffffffffffffffff82169050919050565b60006143498261431e565b9050919050565b6143598161433e565b82525050565b60006020820190506143746000830184614350565b92915050565b6143838161433e565b811461438e57600080fd5b50565b6000813590506143a08161437a565b92915050565b600080604083850312156143bd576143bc614144565b5b60006143cb85828601614391565b92505060206143dc858286016142dc565b9150509250929050565b600081519050919050565b600082825260208201905092915050565b6000819050602082019050919050565b61441b8161433e565b82525050565b600061442d8383614412565b60208301905092915050565b6000602082019050919050565b6000614451826143e6565b61445b81856143f1565b935061446683614402565b8060005b8381101561449757815161447e8882614421565b975061448983614439565b92505060018101905061446a565b5085935050505092915050565b600060208201905081810360008301526144be8184614446565b905092915050565b600080604083850312156144dd576144dc614144565b5b60006144eb858286016142dc565b92505060206144fc858286016142dc565b9150509250929050565b60008060006060848603121561451f5761451e614144565b5b600061452d86828701614391565b935050602061453e86828701614391565b925050604061454f868287016142dc565b9150509250925092565b614562816142bb565b82525050565b600082825260208201905092915050565b600061458482614209565b61458e8185614568565b935061459e818560208601614225565b6145a78161424f565b840191505092915050565b60006080830160008301516145ca6000860182614559565b50602083015184820360208601526145e28282614579565b915050604083015184820360408601526145fc8282614579565b915050606083015184820360608601526146168282614579565b9150508091505092915050565b6000602082019050818103600083015261463d81846145b2565b905092915050565b600081519050919050565b600082825260208201905092915050565b6000819050602082019050919050565b60006080830160008301516146896000860182614559565b50602083015184820360208601526146a18282614579565b915050604083015184820360408601526146bb8282614579565b915050606083015184820360608601526146d58282614579565b9150508091505092915050565b60006146ee8383614671565b905092915050565b6000602082019050919050565b600061470e82614645565b6147188185614650565b93508360208202850161472a85614661565b8060005b85811015614766578484038952815161474785826146e2565b9450614752836146f6565b925060208a0199505060018101905061472e565b50829750879550505050505092915050565b600060208201905081810360008301526147928184614703565b905092915050565b600080fd5b600080fd5b7f4e487b7100000000000000000000000000000000000000000000000000000000600052604160045260246000fd5b6147dc8261424f565b810181811067ffffffffffffffff821117156147fb576147fa6147a4565b5b80604052505050565b600061480e61413a565b905061481a82826147d3565b919050565b600067ffffffffffffffff82111561483a576148396147a4565b5b6148438261424f565b9050602081019050919050565b82818337600083830152505050565b600061487261486d8461481f565b614804565b90508281526020810184848401111561488e5761488d61479f565b5b614899848285614850565b509392505050565b600082601f8301126148b6576148b561479a565b5b81356148c684826020860161485f565b91505092915050565b600080600080608085870312156148e9576148e8614144565b5b60006148f7878288016142dc565b945050602085013567ffffffffffffffff81111561491857614917614149565b5b614924878288016148a1565b935050604085013567ffffffffffffffff81111561494557614944614149565b5b614951878288016148a1565b925050606085013567ffffffffffffffff81111561497257614971614149565b5b61497e878288016148a1565b91505092959194509250565b614993816142bb565b82525050565b60006060820190506149ae600083018661498a565b6149bb602083018561498a565b6149c8604083018461498a565b949350505050565b60006020820190506149e5600083018461498a565b92915050565b600060208284031215614a0157614a00614144565b5b6000614a0f84828501614391565b91505092915050565b600060c082019050614a2d600083018961498a565b8181036020830152614a3f8188614260565b90508181036040830152614a538187614260565b90508181036060830152614a678186614260565b9050614a7660808301856141df565b614a8360a0830184614350565b979650505050505050565b6000604082019050614aa3600083018561498a565b614ab0602083018461498a565b9392505050565b614ac0816141d3565b8114614acb57600080fd5b50565b600081359050614add81614ab7565b92915050565b60008060408385031215614afa57614af9614144565b5b6000614b0885828601614391565b9250506020614b1985828601614ace565b9150509250929050565b6000608082019050614b38600083018761498a565b8181036020830152614b4a8186614260565b90508181036040830152614b5e8185614260565b90508181036060830152614b728184614260565b905095945050505050565b600067ffffffffffffffff821115614b9857614b976147a4565b5b614ba18261424f565b9050602081019050919050565b6000614bc1614bbc84614b7d565b614804565b905082815260208101848484011115614bdd57614bdc61479f565b5b614be8848285614850565b509392505050565b600082601f830112614c0557614c0461479a565b5b8135614c15848260208601614bae565b91505092915050565b60008060008060808587031215614c3857614c37614144565b5b6000614c4687828801614391565b9450506020614c5787828801614391565b9350506040614c68878288016142dc565b925050606085013567ffffffffffffffff811115614c8957614c88614149565b5b614c9587828801614bf0565b91505092959194509250565b600081519050919050565b600082825260208201905092915050565b6000819050602082019050919050565b614cd6816141d3565b82525050565b600060c083016000830151614cf46000860182614559565b5060208301518482036020860152614d0c8282614579565b91505060408301518482036040860152614d268282614579565b91505060608301518482036060860152614d408282614579565b9150506080830151614d556080860182614ccd565b5060a0830151614d6860a0860182614412565b508091505092915050565b6000614d7f8383614cdc565b905092915050565b6000602082019050919050565b6000614d9f82614ca1565b614da98185614cac565b935083602082028501614dbb85614cbd565b8060005b85811015614df75784840389528151614dd88582614d73565b9450614de383614d87565b925060208a01995050600181019050614dbf565b50829750879550505050505092915050565b60006020820190508181036000830152614e238184614d94565b905092915050565b60008060408385031215614e4257614e41614144565b5b6000614e5085828601614391565b9250506020614e6185828601614391565b9150509250929050565b7f4e487b7100000000000000000000000000000000000000000000000000000000600052602260045260246000fd5b60006002820490506001821680614eb257607f821691505b602082108103614ec557614ec4614e6b565b5b50919050565b7f4552433732313a20617070726f76616c20746f2063757272656e74206f776e6560008201527f7200000000000000000000000000000000000000000000000000000000000000602082015250565b6000614f27602183614214565b9150614f3282614ecb565b604082019050919050565b60006020820190508181036000830152614f5681614f1a565b9050919050565b7f4552433732313a20617070726f76652063616c6c6572206973206e6f7420746f60008201527f6b656e206f776e6572206f7220617070726f76656420666f7220616c6c000000602082015250565b6000614fb9603d83614214565b9150614fc482614f5d565b604082019050919050565b60006020820190508181036000830152614fe881614fac565b9050919050565b7f476976656e20546f6b656e20697320494e56414c49442e2e2e21212100000000600082015250565b6000615025601c83614214565b915061503082614fef565b602082019050919050565b6000602082019050818103600083015261505481615018565b9050919050565b7f4e487b7100000000000000000000000000000000000000000000000000000000600052601160045260246000fd5b6000615095826142bb565b91506150a0836142bb565b92508282019050808211156150b8576150b761505b565b5b92915050565b60006150c9826142bb565b91507fffffffffffffffffffffffffffffffffffffffffffffffffffffffffffffffff82036150fb576150fa61505b565b5b600182019050919050565b7f4e487b7100000000000000000000000000000000000000000000000000000000600052601260045260246000fd5b6000615140826142bb565b915061514b836142bb565b92508261515b5761515a615106565b5b828204905092915050565b7f4552433732313a2063616c6c6572206973206e6f7420746f6b656e206f776e6560008201527f72206f7220617070726f76656400000000000000000000000000000000000000602082015250565b60006151c2602d83614214565b91506151cd82615166565b604082019050919050565b600060208201905081810360008301526151f1816151b5565b9050919050565b7f4e487b7100000000000000000000000000000000000000000000000000000000600052603260045260246000fd5b60008190508160005260206000209050919050565b60006020601f8301049050919050565b600082821b905092915050565b6000600883026152897fffffffffffffffffffffffffffffffffffffffffffffffffffffffffffffffff8261524c565b615293868361524c565b95508019841693508086168417925050509392505050565b6000819050919050565b60006152d06152cb6152c6846142bb565b6152ab565b6142bb565b9050919050565b6000819050919050565b6152ea836152b5565b6152fe6152f6826152d7565b848454615259565b825550505050565b600090565b615313615306565b61531e8184846152e1565b505050565b5b818110156153425761533760008261530b565b600181019050615324565b5050565b601f8211156153875761535881615227565b6153618461523c565b81016020851015615370578190505b61538461537c8561523c565b830182615323565b50505b505050565b600082821c905092915050565b60006153aa6000198460080261538c565b1980831691505092915050565b60006153c38383615399565b9150826002028217905092915050565b6153dc82614209565b67ffffffffffffffff8111156153f5576153f46147a4565b5b6153ff8254614e9a565b61540a828285615346565b600060209050601f83116001811461543d576000841561542b578287015190505b61543585826153b7565b86555061549d565b601f19841661544b86615227565b60005b828110156154735784890151825560018201915060208501945060208101905061544e565b86831015615490578489015161548c601f891682615399565b8355505b6001600288020188555050505b505050505050565b7f45786869626974206973206e6f74206f6e2073616c6500000000000000000000600082015250565b60006154db601683614214565b91506154e6826154a5565b602082019050919050565b6000602082019050818103600083015261550a816154ce565b9050919050565b7f496e73756666696369656e742062616c616e6365000000000000000000000000600082015250565b6000615547601483614214565b915061555282615511565b602082019050919050565b600060208201905081810360008301526155768161553a565b9050919050565b7f596f752063616e6e6f742062757920796f7572206f776e204578686962697400600082015250565b60006155b3601f83614214565b91506155be8261557d565b602082019050919050565b600060208201905081810360008301526155e2816155a6565b9050919050565b7f4f6e6c79204f776e657220706572666f726d2074686973206f7065726174696f60008201527f6e00000000000000000000000000000000000000000000000000000000000000602082015250565b6000615645602183614214565b9150615650826155e9565b604082019050919050565b6000602082019050818103600083015261567481615638565b9050919050565b7f50657263656e746167652073686f756c64206265206265747765656e2031206160008201527f6e64203130300000000000000000000000000000000000000000000000000000602082015250565b60006156d7602683614214565b91506156e28261567b565b604082019050919050565b60006020820190508181036000830152615706816156ca565b9050919050565b6000615718826142bb565b9150615723836142bb565b9250828202615731816142bb565b915082820484148315176157485761574761505b565b5b5092915050565b600061575a826142bb565b9150615765836142bb565b925082820390508181111561577d5761577c61505b565b5b92915050565b7f4552433732313a20696e76616c696420746f6b656e2049440000000000000000600082015250565b60006157b9601883614214565b91506157c482615783565b602082019050919050565b600060208201905081810360008301526157e8816157ac565b9050919050565b7f4552433732313a2061646472657373207a65726f206973206e6f74206120766160008201527f6c6964206f776e65720000000000000000000000000000000000000000000000602082015250565b600061584b602983614214565b9150615856826157ef565b604082019050919050565b6000602082019050818103600083015261587a8161583e565b9050919050565b600081905092915050565b600061589782614209565b6158a18185615881565b93506158b1818560208601614225565b80840191505092915050565b60006158c9828461588c565b915081905092915050565b600081546158e181614e9a565b6158eb8186615881565b94506001821660008114615906576001811461591b5761594e565b60ff198316865281151582028601935061594e565b61592485615227565b60005b8381101561594657815481890152600182019150602081019050615927565b838801955050505b50505092915050565b600061596382846158d4565b915081905092915050565b7f4e6f7420417574686f72697a6564000000000000000000000000000000000000600082015250565b60006159a4600e83614214565b91506159af8261596e565b602082019050919050565b600060208201905081810360008301526159d381615997565b9050919050565b60006159e6828561588c565b91506159f2828461588c565b91508190509392505050565b7f4552433732313a207472616e736665722066726f6d20696e636f72726563742060008201527f6f776e6572000000000000000000000000000000000000000000000000000000602082015250565b6000615a5a602583614214565b9150615a65826159fe565b604082019050919050565b60006020820190508181036000830152615a8981615a4d565b9050919050565b7f4552433732313a207472616e7366657220746f20746865207a65726f2061646460008201527f7265737300000000000000000000000000000000000000000000000000000000602082015250565b6000615aec602483614214565b9150615af782615a90565b604082019050919050565b60006020820190508181036000830152615b1b81615adf565b9050919050565b7f4552433732313a206d696e7420746f20746865207a65726f2061646472657373600082015250565b6000615b58602083614214565b9150615b6382615b22565b602082019050919050565b60006020820190508181036000830152615b8781615b4b565b9050919050565b7f4552433732313a20746f6b656e20616c7265616479206d696e74656400000000600082015250565b6000615bc4601c83614214565b9150615bcf82615b8e565b602082019050919050565b60006020820190508181036000830152615bf381615bb7565b9050919050565b7f4552433732313a20617070726f766520746f2063616c6c657200000000000000600082015250565b6000615c30601983614214565b9150615c3b82615bfa565b602082019050919050565b60006020820190508181036000830152615c5f81615c23565b9050919050565b7f4552433732313a207472616e7366657220746f206e6f6e20455243373231526560008201527f63656976657220696d706c656d656e7465720000000000000000000000000000602082015250565b6000615cc2603283614214565b9150615ccd82615c66565b604082019050919050565b60006020820190508181036000830152615cf181615cb5565b9050919050565b600081519050919050565b600082825260208201905092915050565b6000615d1f82615cf8565b615d298185615d03565b9350615d39818560208601614225565b615d428161424f565b840191505092915050565b6000608082019050615d626000830187614350565b615d6f6020830186614350565b615d7c604083018561498a565b8181036060830152615d8e8184615d14565b905095945050505050565b600081519050615da88161417a565b92915050565b600060208284031215615dc457615dc3614144565b5b6000615dd284828501615d99565b9150509291505056fea2646970667358221220f654449d4c92ad739fdc10d666a216e3ce763d4b4c2712ad334b6c307db67fb664736f6c63430008130033",
  "immutableReferences": {},
  "source": "// SPDX-License-Identifier: Exhibit\r\npragma solidity ^0.8.0;\r\nimport \"@openzeppelin/contracts/token/ERC721/ERC721.sol\";\r\nimport \"@openzeppelin/contracts/utils/Counters.sol\";\r\ncontract MuseumExhibits is ERC721 {\r\n    using Counters for Counters.Counter;\r\n    Counters.Counter private exhibitTokenId;\r\n    address MuseumAuthority;\r\n    struct MuseumExhibitss {\r\n        uint256 yearOfCreations;\r\n        string owners;\r\n        string nameOfExhibits;\r\n        string historys;\r\n        bool authenticOrNot;\r\n        address ownerAddress;\r\n    }\r\n    struct MuseumExhibit {\r\n        uint256 yearOfCreation;\r\n        string owner;\r\n        string nameOfExhibit;\r\n        string history;\r\n    }\r\n    struct sale{\r\n        uint256 price;\r\n        uint256 onSaleOrNot;\r\n    }\r\n    struct Rating\r\n    {\r\n        uint256 ratingSum;\r\n        uint256 noOfRatings;\r\n        uint256 totalRating;\r\n    }\r\n    MuseumExhibitss[] public requests;\r\n    mapping(uint256 => MuseumExhibit) public exhibitDetails;\r\n    mapping(uint256=>sale) public saleDetails;\r\n    mapping(uint256=>Rating) public ratings;\r\n    mapping(uint256 => address[]) allOwnersOfExhibit;\r\n    event exhibitMinted(uint256 tokenId);\r\n    event exhibitSold(uint256 tokenId);\r\n    event exhibitKeptOnSale();\r\n    modifier tokenExists(uint256 c){\r\n        require(_exists(c)==true,\"Given Token is INVALID...!!!\");\r\n        _;\r\n    }\r\n    modifier isOwner(address a,uint256 c){\r\n        require(_isApprovedOrOwner(a,c)==true,\"Only Owner perform this operation\");\r\n        _;\r\n    }\r\n    modifier exhibitIsOnSaleOrNot(uint256 c){\r\n        require(saleDetails[c].onSaleOrNot == 1,\"Exhibit is not on sale\");\r\n        _;\r\n    }\r\n    modifier onlyMuseumAuthority{\r\n        require(msg.sender==MuseumAuthority,\"Not Authorized\");\r\n        _;\r\n    }\r\n\r\n    modifier enoughFunds(uint256 a,uint256 c)\r\n    {\r\n        require(a >= saleDetails[c].price, \"Insufficient balance\");\r\n        _;\r\n    }\r\n    constructor() ERC721(\"MuseumExhibitNFT\", \"ME\") {\r\n        MuseumAuthority=msg.sender;\r\n    }\r\n\r\n    function mintMuseumExhibit( uint256 reqID) public onlyMuseumAuthority {\r\n        exhibitTokenId.increment();\r\n        uint256 tokenIdOfExhibit = exhibitTokenId.current();\r\n        _mint(requests[reqID].ownerAddress, tokenIdOfExhibit);\r\n        requests[reqID].authenticOrNot=true;\r\n        MuseumExhibit memory a= MuseumExhibit(requests[reqID].yearOfCreations,requests[reqID].owners,requests[reqID].nameOfExhibits,requests[reqID].historys);\r\n        exhibitDetails[tokenIdOfExhibit]=a;\r\n        allOwnersOfExhibit[tokenIdOfExhibit].push(msg.sender);\r\n        emit exhibitMinted(tokenIdOfExhibit);\r\n    }\r\n\r\n    function requestMintingAnExhibit(uint256 yearOfCreation, string memory owner,string memory nameOfExhibit,string memory history) public {\r\n        requests.push(MuseumExhibitss(yearOfCreation,owner,nameOfExhibit,history,false,msg.sender));\r\n    }\r\n\r\n    function getExhibitDetails(uint256 tokenId) public view tokenExists(tokenId) returns (MuseumExhibit memory) {\r\n        return (exhibitDetails[tokenId]);\r\n    }\r\n\r\n    function getRatingsOfExhibit(uint256 tokenId) public view tokenExists(tokenId) returns (uint256){\r\n        return ratings[tokenId].totalRating;\r\n    }\r\n    \r\n     function keepExhibitOnSale(uint256 tokenId,uint256 price) public tokenExists(tokenId) isOwner(msg.sender,tokenId)  {\r\n        saleDetails[tokenId]= sale(price,1);\r\n        emit exhibitKeptOnSale();\r\n    }\r\n    function viewAllExhibits() public view returns (MuseumExhibit[] memory) {\r\n        uint256 noOfExhibits = exhibitTokenId.current();\r\n        MuseumExhibit[] memory allExhibits = new MuseumExhibit[](noOfExhibits);\r\n        for (uint256 i = 0; i < noOfExhibits; i++) {\r\n        allExhibits[i] = exhibitDetails[i+1];}\r\n        return allExhibits;\r\n    }\r\n    function viewAllExhibitsOnSale() public view returns (MuseumExhibit[] memory) {\r\n        uint256 noOfExhibits = exhibitTokenId.current();\r\n        uint256 a=0;\r\n        uint256 b = 0;\r\n        for (uint256 i = 1; i <= noOfExhibits; i++) {\r\n            if(saleDetails[i].onSaleOrNot==1){\r\n                a++;\r\n            }\r\n        }\r\n        MuseumExhibit[] memory saleExhibits = new MuseumExhibit[](a);\r\n        for (uint256 i = 1; i <= noOfExhibits; i++) {\r\n            if (saleDetails[i].onSaleOrNot == 1) {\r\n                saleExhibits[b] = exhibitDetails[i];\r\n                b++;\r\n            }\r\n        }\r\n        return saleExhibits;\r\n\r\n\r\n    }\r\n    function removeExhibitFromSale(uint256 tokenId) public tokenExists(tokenId) isOwner(msg.sender,tokenId) exhibitIsOnSaleOrNot(tokenId) {\r\n        //delete(saleDetails[tokenId]);\r\n        saleDetails[tokenId].onSaleOrNot = 0;\r\n    }\r\n\r\n    function buyAnExhibit(uint256 tokenId) public payable tokenExists(tokenId) exhibitIsOnSaleOrNot(tokenId) enoughFunds(msg.value,tokenId) {\r\n        sale storage salee = saleDetails[tokenId];\r\n        address owner = ownerOf(tokenId);\r\n        address buyer = msg.sender;\r\n        require(owner != buyer, \"You cannot buy your own Exhibit\");\r\n        payable(owner).transfer(salee.price);\r\n        _transfer(owner, buyer, tokenId);\r\n        allOwnersOfExhibit[tokenId].push(msg.sender);\r\n        saleDetails[tokenId].onSaleOrNot = 0;\r\n        emit exhibitSold(tokenId);\r\n    }\r\n    function getTokenId(uint256 yearOfCreation,string memory owner,string memory nameOfExhibit,string memory history) public view returns(uint256){\r\n        for(uint256 i=1;i<=exhibitTokenId.current();i++)\r\n        {\r\n                if(exhibitDetails[i].yearOfCreation==yearOfCreation && (keccak256(abi.encodePacked(exhibitDetails[i].owner)) == keccak256(abi.encodePacked(owner))) && (keccak256(abi.encodePacked(exhibitDetails[i].nameOfExhibit)) == keccak256(abi.encodePacked(nameOfExhibit))) && (keccak256(abi.encodePacked(exhibitDetails[i].history)) == keccak256(abi.encodePacked(history))) )\r\n                {\r\n                    return i;\r\n                }\r\n        }\r\n        return 0;\r\n    }\r\n    function getRequestId(uint256 yearOfCreations,string memory owners,string memory nameOfExhibits,string memory historys) public view returns(uint256){\r\n        for(uint256 i=0;i<=requests.length;i++)\r\n        {\r\n                if(requests[i].yearOfCreations==yearOfCreations && (keccak256(abi.encodePacked(requests[i].owners)) == keccak256(abi.encodePacked(owners))) && (keccak256(abi.encodePacked(requests[i].nameOfExhibits)) == keccak256(abi.encodePacked(nameOfExhibits))) && (keccak256(abi.encodePacked(requests[i].historys)) == keccak256(abi.encodePacked(historys))) )\r\n                {\r\n                    return i;\r\n                }\r\n        }\r\n        return 0;\r\n    }\r\n\r\n    function getUnMintedExhibitDetails() public view returns(MuseumExhibitss[] memory){\r\n        MuseumExhibitss[] memory unmintedExhibits = new MuseumExhibitss[](requests.length);\r\n        uint256 count = 0;\r\n        for (uint256 i = 0; i < requests.length; i++) {\r\n            if (requests[i].authenticOrNot==false) {\r\n                unmintedExhibits[count] = requests[i];\r\n                count++;\r\n            }\r\n        }\r\n        assembly {\r\n            mstore(unmintedExhibits, count)\r\n        }\r\n        return unmintedExhibits;\r\n    }\r\n\r\n    function getExhibitPrice(uint256 tokenId) public view tokenExists(tokenId) returns (uint256) {\r\n        return (saleDetails[tokenId].price);\r\n\r\n    }\r\n\r\n    function rateAnExhibit(uint256 tokenId,uint256 rating) public tokenExists(tokenId) {\r\n        ratings[tokenId].ratingSum+= rating;\r\n        ratings[tokenId].noOfRatings++;\r\n        ratings[tokenId].totalRating = ratings[tokenId].ratingSum / ratings[tokenId].noOfRatings;\r\n    }\r\n\r\n    function appreciateTokenPrice(uint256 tokenId, uint256 percentage) public tokenExists(tokenId) isOwner(msg.sender,tokenId) {\r\n        require(percentage > 0 && percentage <= 100, \"Percentage should be between 1 and 100\");\r\n        uint256 currentPrice = getExhibitPrice(tokenId);\r\n        uint256 increasedAmount = (currentPrice * percentage) / 100;\r\n        saleDetails[tokenId].price = currentPrice + increasedAmount;\r\n    }\r\n    function depriciateTokenPrice(uint256 tokenId, uint256 percentage) public tokenExists(tokenId) isOwner(msg.sender,tokenId) {\r\n        require(percentage > 0 && percentage <= 100, \"Percentage should be between 1 and 100\");\r\n        uint256 currentPrice = getExhibitPrice(tokenId);\r\n        uint256 decreasedAmount = (currentPrice * percentage) / 100;\r\n        saleDetails[tokenId].price = currentPrice - decreasedAmount;\r\n    }\r\n    function updateSalePrice(uint256 tokenId,uint256 newPrice) public tokenExists(tokenId) isOwner(msg.sender,tokenId)  {\r\n        saleDetails[tokenId].price = newPrice;\r\n    }\r\n    function listAllOwners(uint256 tokenId) public view tokenExists(tokenId) returns (address[] memory){\r\n        return allOwnersOfExhibit[tokenId];\r\n    }\r\n\r\n}\r\n",
  "sourcePath": "/Users/vaishnavikoyyada/Documents/BlockChain-Project/MuseumExhibit-Daap/MuseumExhibit-Contract/contracts/MuseumExhibit.sol",
  "compiler": {
    "name": "solc",
    "version": "0.8.19+commit.7dd6d404.Emscripten.clang"
  },
  "schemaVersion": "3.4.13",
  "updatedAt": "2023-05-09T20:45:26.219Z",
  "networkType": "ethereum",
  "devdoc": {
    "events": {
      "Approval(address,address,uint256)": {
        "details": "Emitted when `owner` enables `approved` to manage the `tokenId` token."
      },
      "ApprovalForAll(address,address,bool)": {
        "details": "Emitted when `owner` enables or disables (`approved`) `operator` to manage all of its assets."
      },
      "Transfer(address,address,uint256)": {
        "details": "Emitted when `tokenId` token is transferred from `from` to `to`."
      }
    },
    "kind": "dev",
    "methods": {
      "approve(address,uint256)": {
        "details": "See {IERC721-approve}."
      },
      "balanceOf(address)": {
        "details": "See {IERC721-balanceOf}."
      },
      "getApproved(uint256)": {
        "details": "See {IERC721-getApproved}."
      },
      "isApprovedForAll(address,address)": {
        "details": "See {IERC721-isApprovedForAll}."
      },
      "name()": {
        "details": "See {IERC721Metadata-name}."
      },
      "ownerOf(uint256)": {
        "details": "See {IERC721-ownerOf}."
      },
      "safeTransferFrom(address,address,uint256)": {
        "details": "See {IERC721-safeTransferFrom}."
      },
      "safeTransferFrom(address,address,uint256,bytes)": {
        "details": "See {IERC721-safeTransferFrom}."
      },
      "setApprovalForAll(address,bool)": {
        "details": "See {IERC721-setApprovalForAll}."
      },
      "supportsInterface(bytes4)": {
        "details": "See {IERC165-supportsInterface}."
      },
      "symbol()": {
        "details": "See {IERC721Metadata-symbol}."
      },
      "tokenURI(uint256)": {
        "details": "See {IERC721Metadata-tokenURI}."
      },
      "transferFrom(address,address,uint256)": {
        "details": "See {IERC721-transferFrom}."
      }
    },
    "version": 1
  },
  "userdoc": {
    "kind": "user",
    "methods": {},
    "version": 1
  }
}